{
  "contractName": "SimpleStorage",
  "abi": [
    {
      "constant": true,
      "inputs": [],
      "name": "storedData",
      "outputs": [
        {
          "name": "",
          "type": "uint256"
        }
      ],
      "payable": false,
      "stateMutability": "view",
      "type": "function",
      "signature": "0x2a1afcd9"
    },
    {
      "anonymous": false,
      "inputs": [
        {
          "indexed": false,
          "name": "_message",
          "type": "string"
        }
      ],
      "name": "StorageSet",
      "type": "event",
      "signature": "0x60cdc157ca4737a5d39a0e107532616e7bf6946e615228812c7f9bc9f81797a6"
    },
    {
      "constant": false,
      "inputs": [
        {
          "name": "x",
          "type": "uint256"
        }
      ],
      "name": "set",
      "outputs": [],
      "payable": false,
      "stateMutability": "nonpayable",
      "type": "function",
      "signature": "0x60fe47b1"
    }
  ],
  "bytecode": "0x608060405234801561001057600080fd5b50610137806100206000396000f3fe608060405260043610610045577c010000000000000000000000000000000000000000000000000000000060003504632a1afcd9811461004a57806360fe47b114610071575b600080fd5b34801561005657600080fd5b5061005f61009d565b60408051918252519081900360200190f35b34801561007d57600080fd5b5061009b6004803603602081101561009457600080fd5b50356100a3565b005b60005481565b60008190556040805160208082526019908201527f446174612073746f726564207375636365737366756c6c7921000000000000008183015290517f60cdc157ca4737a5d39a0e107532616e7bf6946e615228812c7f9bc9f81797a69181900360600190a15056fea165627a7a72305820444cfd4a878f180f6c03ac00b5d51a559031ef4eeb54120895388c3112ff5c700029",
  "source": "pragma solidity ^0.5.1;\n\ncontract SimpleStorage {\n  event StorageSet(\n    string _message\n  );\n\n  uint public storedData;\n\n  function set(uint x) public {\n    storedData = x;\n\n    emit StorageSet(\"Data stored successfully!\");\n  }\n}\n",
  "sourcePath": "D:/Users/Documents/eventBet/contracts/SimpleStorage.sol",
  "compiler": {
    "name": "solc",
    "version": "0.5.1+commit.c8a2cb62.Emscripten.clang"
  },
  "schemaVersion": "3.0.0-beta.2",
  "updatedAt": "2018-12-18T03:30:35.925Z",
  "devdoc": {
    "methods": {}
  },
  "userdoc": {
    "methods": {}
  }
}