{
  "contractName": "UserHash",
  "abi": [
    {
      "anonymous": false,
      "inputs": [
        {
          "indexed": false,
          "name": "_message",
          "type": "string"
        }
      ],
      "name": "IPFSSet",
      "type": "event",
      "signature": "0x6c96446e3e4e28f083a835ca77cd19a3267481a742ebc28863da98a07030e3ef"
    },
    {
      "constant": false,
      "inputs": [
        {
          "name": "x",
          "type": "string"
        }
      ],
      "name": "setHash",
      "outputs": [],
      "payable": false,
      "stateMutability": "nonpayable",
      "type": "function",
      "signature": "0x1ed83fd4"
    },
    {
      "constant": true,
      "inputs": [],
      "name": "getHash",
      "outputs": [
        {
          "name": "x",
          "type": "string"
        }
      ],
      "payable": false,
      "stateMutability": "view",
      "type": "function",
      "signature": "0xd13319c4"
    }
  ],
  "bytecode": "0x608060405234801561001057600080fd5b5061035b806100206000396000f3fe608060405260043610610045577c010000000000000000000000000000000000000000000000000000000060003504631ed83fd4811461004a578063d13319c4146100ff575b600080fd5b34801561005657600080fd5b506100fd6004803603602081101561006d57600080fd5b81019060208101813564010000000081111561008857600080fd5b82018360208201111561009a57600080fd5b803590602001918460018302840111640100000000831117156100bc57600080fd5b91908080601f016020809104026020016040519081016040528093929190818152602001838380828437600092019190915250929550610189945050505050565b005b34801561010b57600080fd5b50610114610200565b6040805160208082528351818301528351919283929083019185019080838360005b8381101561014e578181015183820152602001610136565b50505050905090810190601f16801561017b5780820380516001836020036101000a031916815260200191505b509250505060405180910390f35b805161019c906000906020840190610297565b506040805160208082526015908201527f55706c6f61646564206461746120746f204950465300000000000000000000008183015290517f6c96446e3e4e28f083a835ca77cd19a3267481a742ebc28863da98a07030e3ef9181900360600190a150565b60008054604080516020601f600260001961010060018816150201909516949094049384018190048102820181019092528281526060939092909183018282801561028c5780601f106102615761010080835404028352916020019161028c565b820191906000526020600020905b81548152906001019060200180831161026f57829003601f168201915b505050505090505b90565b828054600181600116156101000203166002900490600052602060002090601f016020900481019282601f106102d857805160ff1916838001178555610305565b82800160010185558215610305579182015b828111156103055782518255916020019190600101906102ea565b50610311929150610315565b5090565b61029491905b80821115610311576000815560010161031b56fea165627a7a723058205a797031ef01a0f38d4f4e1f9283b3f067e8a32cba259afa7126ef0a853dfdbc0029",
  "source": "pragma solidity ^0.5.1;\r\n\r\ncontract UserHash {\r\n    event IPFSSet(\r\n        string _message\r\n    );\r\n    string ipfsHash;\r\n\r\n    function setHash(string memory x) public {\r\n        ipfsHash = x;\r\n        emit IPFSSet(\"Uploaded data to IPFS\");\r\n    }\r\n\r\n    function getHash() public view returns(string memory x) {\r\n        return ipfsHash;\r\n    }\r\n}",
  "sourcePath": "D:/Users/Documents/eventBet/contracts/UserHash.sol",
  "compiler": {
    "name": "solc",
    "version": "0.5.1+commit.c8a2cb62.Emscripten.clang"
  },
  "schemaVersion": "3.0.0-beta.2",
  "updatedAt": "2018-12-18T03:30:35.932Z",
  "devdoc": {
    "methods": {}
  },
  "userdoc": {
    "methods": {}
  }
}